:1040000000000120BD900000E5900000E790000056
:10401000E9900000EB900000ED900000000000002F
:10402000000000000000000000000000EF90000011
:10403000F190000000000000F3900000F5900000F7
:10404000F7900000F1840000F7900000F790000066
:10405000F7900000F790000065600000F790000006
:10406000F7900000F79000004D890000F7900000E5
:10407000F7900000F7900000F7900000F790000024
:10408000F7900000014C0000F7900000F79000004E
:10409000F7900000F7900000F7900000F790000004
:1040A000F7900000F79000007D880000F790000076
:1040B000E1630000F7900000000000000000000035
:1040C000F7900000F7900000F7900000F7900000D4
:1040D000F7900000F7900000F55D00000000000080
:1040E00000000000000000000000000000000000D0
:1040F00000000000000000000000000000000000C0
:1041000000000000000000000000000000000000AF
:10411000000000000000000000000000000000009F
:10412000000000000000000000000000000000008F
:10413000000000000000000000000000000000007F
:10414000000000000000000000000000000000006F
:10415000000000000000000000000000000000005F
:10416000000000000000000000000000000000004F
:10417000000000000000000000000000000000003F
:10418000000000000000000000000000000000002F
:10419000000000000000000000000000000000001F
:1041A000000000000000000000000000000000000F
:1041B00000000000000000000000000000000000FF
:1041C00000000000000000000000000000000000EF
:1041D00000000000000000000000000000000000DF
:1041E00000000000000000000000000000000000CF
:1041F00000000000000000000000000000000000BF
:1042000010B5054C237833B9044B13B10448AFF310
:1042100000800123237010BDC400002000000000B6
:104220002CA1000008B5034B1BB103490348AFF3B1
:10423000008008BD00000000C80000202CA1000084
:10424000154B002B08BF134B9D46A3F5803A002168
:104250008B460F461348144A121A05F0A9FA0F4B61
:10426000002B00D098470E4B002B00D09847002021
:10427000002104000D000D48002802D00C48AFF3C7
:10428000008005F071FA2000290000F0A9FD05F07A
:1042900057FA00BF000008000000012000000000E5
:1042A00000000000C4000020C4180020000000002E
:1042B0000000000080B58CB000AF002387F82F30DD
:1042C000804B1B780133DAB27E4B1A707D4B1B7822
:1042D000802B02D97B4B00221A7097F82F305A1C82
:1042E00087F82F201A46774B1978774B995497F80F
:1042F0002F305A1C87F82F201A46734B00219954EF
:104300004FF080535B6E3B623B6A190E97F82F307B
:104310005A1C87F82F201A46C9B26B4B99543B6A36
:10432000190C97F82F305A1C87F82F201A46C9B25B
:10433000654B99543B6A190A97F82F305A1C87F835
:104340002F201A46C9B2604B995497F82F305A1C47
:1043500087F82F201A463B6AD9B25B4B9954102339
:1043600087F82E30594B1B78002B0FD0202387F86D
:104370002E3097F82F305A1C87F82F201A4697F8BE
:104380002E30243BD9B2504B99541FE0504B1B7830
:10439000002B0FD097F82F305A1C87F82F201A4681
:1043A00097F82E306433D9B2474B9954484B0022CA
:1043B0001A700BE097F82F305A1C87F82F201A46F6
:1043C00097F82E30383BD9B23F4B9954414B1B786C
:1043D0000133DAB23F4B1A703E4B1B78022B02D1ED
:1043E0003C4B00221A7097F82F305A1C87F82F2068
:1043F0001A46384B1978344B9954364B1B78002B9E
:104400001BD197F82F305A1C87F82F201A46324BB1
:1044100019782D4B995497F82F305A1C87F82F2074
:104420001A46294B6421995497F82F305A1C87F863
:104430002F201A46244B00219954264B1B78012B20
:1044400023D102F0EBFBF861FB699B8EBB61BB697A
:10445000191297F82F305A1C87F82F201A46C9B224
:10446000194B995497F82F305A1C87F82F201A4669
:10447000BB69D9B2144B995497F82F305A1C87F85E
:104480002F201A46104B0021995497F82F305A1CB0
:1044900087F82F201A46114B19780B4B9954104B63
:1044A0001B781A4697F82E30D31ABB62BB6A002BD2
:1044B00005DA0C4B1B781A46BB6A1344BB62002317
:1044C0007B623AE0E1000020680200200900002041
:1044D000E7000020E6000020E0000020E3000020CC
:1044E000E400002008000020B14ABB6A52F82330E3
:1044F000191297F82F305A1C87F82F201A46C9B284
:10450000AC4B9954AA4ABB6A52F8231097F82F3043
:104510005A1C87F82F201A46C9B2A64B9954BB6A79
:104520000133BB62A44B1B781A46BB6A934201DB82
:104530000023BB627B6A01337B6297F82E307A6A74
:104540009A42D1DB02F06AFB78617B699B8C7B82AB
:104550007B69DB8C3B827B691B8DFB81B7F9123059
:104560001B1219B297F82F305A1C87F82F201A46C1
:10457000C9B2904B995497F82F305A1C87F82F20C6
:104580001A467B8AD9B28B4B9954B7F910301B125B
:1045900019B297F82F305A1C87F82F201A46C9B243
:1045A000844B995497F82F305A1C87F82F201A46BD
:1045B0003B8AD9B27F4B9954B7F90E301B1219B20E
:1045C00097F82F305A1C87F82F201A46C9B2794B1A
:1045D000995497F82F305A1C87F82F201A46FB89D8
:1045E000D9B2744B99547B695B8DBB817B699B8D80
:1045F0007B817B69DB8D3B81B7F90C301B1219B2D3
:1046000097F82F305A1C87F82F201A46C9B2694BE9
:10461000995497F82F305A1C87F82F201A46BB89D7
:10462000D9B2644B9954B7F90A301B1219B297F8F2
:104630002F305A1C87F82F201A46C9B25D4B995467
:1046400097F82F305A1C87F82F201A467B89D9B249
:10465000584B9954B7F908301B1219B297F82F30FC
:104660005A1C87F82F201A46C9B2524B995497F812
:104670002F305A1C87F82F201A463B89D9B24D4B50
:10468000995403F06FFC78607B68D3ED007A9FED5E
:104690004B7A67EE877AFDEEE77A17EE903ABB81A8
:1046A0007B68D3ED017A9FED457A67EE877AFDEE60
:1046B000E77A17EE903A7B817B68D3ED027A9FED23
:1046C0003F7A67EE877AFDEEE77A17EE903A3B8104
:1046D0007B68D3ED037A9FED397A67EE877AFDEE3A
:1046E000E77A17EE903A7B80B7F90C301B1219B2BB
:1046F00097F82F305A1C87F82F201A46C9B22D4B35
:10470000995497F82F305A1C87F82F201A46BB89E6
:10471000D9B2284B9954B7F90A301B1219B297F83D
:104720002F305A1C87F82F201A46C9B2214B9954B2
:1047300097F82F305A1C87F82F201A467B89D9B258
:104740001C4B9954B7F908301B1219B297F82F3047
:104750005A1C87F82F201A46C9B2164B995497F85D
:104760002F305A1C87F82F201A463B89D9B2114B9B
:104770009954B7F902301B1219B297F82F305A1C0E
:1047800087F82F201A46C9B20A4B995497F82F3050
:104790005A1C87F82F201A467B88D9B2054B9954AA
:1047A000044A97F82F30537000BF3037BD4680BDA4
:1047B0006C03002068020020080000200060EA4628
:1047C00080B596B002AF01F02DFB0346002B00F040
:1047D000CE81394B1B78002B37D001F021FCB8611A
:1047E0000023FB642DE0FB6C5B01BA6913447B6121
:1047F0000023BB641FE0BB6C9B007A691344D3EDBC
:10480000007A2E4B1B785A1CD1B22C4A11701A46D2
:10481000FDEEE77A17EE901A294B43F82210274B4A
:104820001A78284B1B789A4202D3244B00221A7024
:10483000BB6C0133BB64BB6C072BDCDDFB6C013351
:10484000FB64FB6C032BCEDD89E101F0DFFB3861FB
:1048500000237B6424E17B6C5B013A691344FB60B9
:104860004FF000033B644FF00003FB634FF0000385
:10487000BB6300237B6395E07B6B002B0BDD7B6BC5
:104880009B00FA681344D3ED007A97ED107A77EE27
:10489000277AC7ED107A7B6B002B17D17B6B9B00BF
:1048A000FA681344D3ED007A97ED0F7A77EE277A02
:1048B000C7ED0F7A16E000BF09000020E4000020D9
:1048C0006C0300200800002000FF7F477B6B9B00EB
:1048D000FA681344D3ED007A97ED0E7A77EE277AD3
:1048E000C7ED0E7A7B6B9B00FA6813441B683B6331
:1048F000D7ED0C7AF5EEC07AF1EE10FA02D54FF052
:1049000000033B63D7ED0C7A1FED117AF4EEC77A02
:10491000F1EE10FA01DD984B3B63984B1B785A1C63
:10492000D1B2964A11701A46D7ED0C7AFDEEE77AAD
:1049300017EE901A924B43F82210904B1A78914B35
:104940001B789A4202D38D4B00221A707B6B043382
:104950009B00FA6813441B68FB62D7ED0B7AF5EEF7
:10496000C07AF1EE10FA02D54FF00003FB62D7EDEA
:104970000B7A9FED857AF4EEC77AF1EE10FA01DD3D
:104980007D4BFB627B6C9A007B6B1344D7ED0B7AFB
:10499000FDEEE77A17EE901A7C4A42F823107B6B03
:1049A00001337B637B6B032B7FF766AF97ED0F7A49
:1049B000F0EE006AC7EE267AC7ED0F7A97ED0E7A11
:1049C000F1EE086AC7EE267AC7ED0E7AD7ED0E7AB9
:1049D00077EEA76A97ED0F7AD7ED0E7A77EE277A02
:1049E0009FED6B7A37EE877AC6EE877AC7ED027A4B
:1049F000D7ED027A9FED677A67EE877A97ED107AA6
:104A000067EE277AC7ED107A634A7B6C9B001344EC
:104A1000D3ED007A9FED617A67EE877A5E4A7B6C10
:104A20009B001344C3ED007A5B4A7B6C9B001344EC
:104A300093ED007AD7ED107ADFED596A67EEA67A2A
:104A400077EE277A544A7B6C9B001344C3ED007ABF
:104A5000514A7B6C9B001344D3ED007A9FED517A51
:104A600067EE877AFDEEE77A17EE901A4E4A7B6C76
:104A700042F82310484A7B6C9B001344D3ED007A24
:104A80009FED4A7AF4EEC77AF1EE10FA05DD464A58
:104A90007B6C4FF6E85142F823107B6C01337B644A
:104AA0007B6C032B7FF7D7AE03F0DCFE7860404BC6
:104AB0001B687A68D31A1E2B51D93D4A7B68136054
:104AC0004FF07E533B60344B93ED007AD7ED007A84
:104AD00067EE277AFDEEE77A17EE903ABB622E4B2F
:104AE00093ED017AD7ED007A67EE277AFDEEE77A4B
:104AF00017EE903A7B62284B93ED027AD7ED007A5D
:104B000067EE277AFDEEE77A17EE903A3B62224B8A
:104B100093ED037AD7ED007A67EE277AFDEEE77A18
:104B200017EE903AFB61BB6AFF2B01DDFF23BB62EE
:104B30007B6AFF2B01DDFF237B623B6AFF2B01DDDC
:104B4000FF233B62FB69FF2B01DDFF23FB61642335
:104B50000093FB693A6A796AB86A01F0BFFC154BA9
:104B60001B780133DAB2134B1A70012300E00023E3
:104B700018465037BD4680BD00FF7F47E400002047
:104B80006C0300200800002000FF7F47280200205F
:104B90006F12833A8FC2F53CE8000020CDCC4C3F29
:104BA000CDCC4C3E0000C842F800002000802244DA
:104BB00008010020E300002080B400AF4FF08043E4
:104BC0000022C3F800214FF0804301221A6000BF89
:104BD0004FF08043D3F80031002BF9D000BFBD4621
:104BE0005DF8047B7047000080B400AF034B0122E6
:104BF0005A6000BFBD465DF8047B7047001001405D
:104C000080B500AF084BD3F84031002B09D0064BDC
:104C10000022C3F84021044B01229A6040BFFFF7F5
:104C2000E3FF00BF80BD00BF0010014080B485B02D
:104C300000AF0023BB604E4B0022C3F818254C4B3D
:104C40000122C3F810254A4B0022C3F81425484B13
:104C50000322C3F8F025464B0122C3F83026444A0C
:104C600007F10803C2F82C36414B0022C3F8F8259F
:104C70003F4B0122C3F800253E4B1B6801333D4AE0
:104C800013603B4B01221A6000BF394BD3F800314F
:104C9000002BFAD0364B0022C3F80021344B0122FE
:104CA0005A6000BF324BD3F80431002BFAD0304B9E
:104CB0000022C3F804212E4B01229A6000BF2C4B26
:104CC000D3F81431002BFAD0294B0022C3F8142159
:104CD000BB6807EE903AF8EE677AC7ED037AD7ED36
:104CE000037A9FED257A27EE877ADFED246AC7EEF7
:104CF000267AC7ED037AD7ED037A77EEA77AC7ED68
:104D0000037A1F4AFB681360D7ED037A9FED1D7A83
:104D100077EEC77AC7ED037AD7ED037AF5EEC07A5E
:104D2000F1EE10FA03D5184B00221A701BE0D7EDF4
:104D3000037A9FED167AF4EEC77AF1EE10FA03DDEE
:104D4000114BFF221A700EE097ED037AF2EE046A1F
:104D5000C7EE267AFCEEE77AC7ED017A3B79DAB244
:104D6000094B1A7000BF1437BD465DF8047B7047CD
:104D7000007000400C0100200000614500008046EA
:104D8000040000200000FA44E000002000601F45FD
:104D900080B400AF074B1B78002B0CBF012300230E
:104DA000DBB21A46034B1A7000BFBD465DF8047BA8
:104DB000704700BF0900002080B400AF074B1B788C
:104DC0001A46012303FA02F24FF0A043C3F80C2560
:104DD00000BFBD465DF8047B704700BF01000020A6
:104DE00090B595B002AF01237B644FF010230022F1
:104DF000C3F80C224FF0A042C14B1B7803F5E073BF
:104E0000002142F82310FFF7D7FE03F0CFFCBD4B83
:104E10001B781A46012303FA02F24FF0A043C3F8AD
:104E20001825B84B1B781A46012303FA02F24FF0FB
:104E3000A043C3F8082501F0F1FA00233B6423E006
:104E40003B6C002B01D1FF2000E000203B6C012BCC
:104E500001D1FF2100E000213B6C022B01D1FF2298
:104E600000E000223B6C032B01D1FF2400E0002472
:104E7000FA230093234601F031FB4FF4967003F0C0
:104E8000A9FD3B6C01333B643B6C032BD8DD002355
:104E90004FF4FA624FF47A71152003F0BBFDC8237A
:104EA00000930023FF22FF21FF2001F017FB0823BE
:104EB0000093062305220321042001F0FDF80A23B4
:104EC0000093002300220021002001F007FB01F0E5
:104ED00005FA0346002B1BD100237B644FF47A7341
:104EE0000093002300220021FF2001F0F7FA4FF485
:104EF000966003F06FFD4FF47A7300930023FF2256
:104F00000021FF2001F0EAFA4FF4966003F062FD01
:104F100014230093012305220321042001F026FE1F
:104F200001F06AFE0346002B1BD100237B644FF483
:104F30007A730093002300220021FF2001F0CEFAB3
:104F40004FF4966003F046FD4FF47A73009300230C
:104F50000022FF21FF2001F0C1FA4FF4966003F018
:104F600039FD4FF0A043D3F81035654A1278114649
:104F700001228A401340002B19D04FF47A7300931A
:104F8000002300220021FF2001F0A8FA4FF49660D0
:104F900003F020FD4FF47A7300930023FF220021D9
:104FA000002001F09BFA4FF4966003F013FD64209B
:104FB00003F010FD0023FB620023FB630023BB62B0
:104FC000514B01221A60504B0022C3F800224E4B75
:104FD0000122C3F8042505237B6205233B620023DD
:104FE000FB610023BB610023BB637B6C002B1ED0E5
:104FF00000237B6318E0C823009300230022FF21D5
:10500000FF2001F06BFAC82003F0E4FCC8230093F2
:10501000FF23FF220021002001F060FAC82003F0E6
:10502000D9FC7B6B01337B637B6B022BE3DD4FF0A1
:1050300080535B6E7B6100233B61786903F014FD54
:1050400000233B6302F028FE304B4FF40042C3F8CC
:1050500004252E4B01221A602C4B2D4AC3F8002642
:1050600004F01CF803F0FEFBF8604FF0A043D3F807
:105070001035234A1278114601228A401340002B32
:1050800048D03B6B002B03D101233B63FB68FB63E0
:10509000FA68FB6BD31A192B0DD9FA68FB6BD31A7C
:1050A000B3F57A7F07D21E2300930023FF2200214D
:1050B000002001F013FAFA68FB6BD31AB3F57A7F7C
:1050C0000ED9FA68FB6BD31A41F28732934207D8A4
:1050D0001E23009300230022FF21002001F0FEF98F
:1050E000FA68FB6BD31A41F28832934236D91E23F9
:1050F0000093FF23FF22FF21FF2001F0EFF92DE0B5
:10510000000000200100002000D00040000001400D
:105110003546526E3B6B002B20D000233B63FB686F
:10512000BB620A230093002300220021002001F02B
:10513000D5F9BA6AFB6BD31ABB60BB68192B0DD9C2
:10514000BB68B3F57A7F02D2FFF722FE06E0BB68A8
:1051500041F28732934201D8FFF72EFE01F0AAF800
:105160000346002B2CD0FFF72BFB0346002B16D059
:105170001F4B1B780133DAB21D4B1A701C4B1B7886
:105180009B09DBB27B601B4B1B781D2B05D8194B91
:105190001B780133DAB2174B1A70FFF747FD02F0A4
:1051A00083FDBB6B0133BB63BB6B642B01D101F08F
:1051B0002FFCBB6BC82B03DD01F018FC0023BB6385
:1051C0000D4B1B78022B7FF447AF0A4B1B78002B4B
:1051D0003FF442AFFFF76EF8084B5B78194607487B
:1051E00003F052FCFB68FB62024B00221A7033E7AB
:1051F000E5000020E20000200A00002068020020F4
:1052000080B483B000AF0346FB71FB7903F01F024B
:10521000074997F907305B09012000FA02F241F8CB
:10522000232000BF0C37BD465DF8047B704700BFEC
:1052300000E100E080B483B000AF0346FB71FB796E
:1052400003F01F02074997F907305B09012000FAB4
:1052500002F2603341F8232000BF0C37BD465DF8F1
:10526000047B704700E100E080B483B000AF0346E8
:105270003960FB7197F90730002B0BDA3B68DAB223
:105280000C49FB7903F00F03043B5201D2B20B44EB
:105290001A7609E03B68DAB2074997F907305201FC
:1052A000D2B20B4483F8002300BF0C37BD465DF833
:1052B000047B704700ED00E000E100E080B483B0C3
:1052C00000AF78604FF0A04318460C37BD465DF83C
:1052D000047B704780B584B000AF78600846114603
:1052E0001A460346FB700B46BB7013467B703B1D92
:1052F0001846FFF7E3FFF860FA78BB785B001A43C3
:105300007B789B001A433B7E1B0242EA03013B7FF2
:105310001B047A681943FB6802F5E07243F8221017
:1053200000BF1037BD4680BD80B584B002AF786045
:1053300000230193002300930023012201217868B8
:10534000FFF7C8FF00BF0837BD4680BD80B584B0F9
:1053500002AF78600B46FB70FA78002301930023BC
:1053600000931346002200217868FFF7B3FF00BFC7
:105370000837BD4680BD000080B483B000AF03464F
:10538000FB710B46BB7113467B710F4A7B79C2F8E8
:1053900008350D4ABB79C2F80C350B4AFB79C2F8C7
:1053A0001035094B4FF00042C3F82425064B00226C
:1053B000C3F85425044B0122C3F8002500BF0C3765
:1053C000BD465DF8047B70470030004080B487B074
:1053D00000AF03463960FB710023FB7307E0304BDD
:1053E000D3F81835FB732E4B0022C3F808212C4B41
:1053F000D3F80831002BF2D14FF0A042294B1B68A3
:10540000C2F80C35FB795B005BB243F040035BB242
:10541000BB73234B0022C3F80821214ABB7BC2F88F
:105420001C3500BF1E4BD3F80831002BFAD01C4BA3
:10543000D3F81835FB731A4B0022C3F80821102348
:10544000FB7500233B611BE0FB7D3A6822FA03F306
:10545000134ADBB2C2F81C35FB7D083BFB7500BF6D
:105460000F4BD3F80831002BFAD00D4BD3F8183579
:10547000FB730B4B0022C3F808213B6901333B61EE
:105480003B69022BE0DD4FF0A042064B1B68C2F8DF
:10549000083500BF1C37BD465DF8047B704700BF70
:1054A000003000401C02002080B487B000AF0346EB
:1054B000FB7100237B6103E02B4BD3F818357B6134
:1054C000294BD3F80831002BF6D14FF0A042274BDF
:1054D0001B68C2F80C35FB795B005BB243F04103FB
:1054E0005BB2FB73204AFB7BC2F81C3500BF1E4B2E
:1054F000D3F80831002BFAD01B4BD3F818357B6159
:1055000000237B6100233B6119E0174B0022C3F8A5
:105510000821154B0022C3F81C2500BF124BD3F8FD
:105520000831002BFAD07B691B027B610E4BD3F84C
:1055300018357A6913437B613B6901333B613B69F1
:10554000022BE2DD084B0022C3F808214FF0A042F5
:10555000064B1B68C2F808357B6918461C37BD46E8
:105560005DF8047B704700BF003000401C02002043
:1055700080B487B000AF786000237B824FF0A042F8
:10558000304B1B68C2F80C3541237B742E4A7B7C60
:10559000C2F81C3500BF2C4BD3F80831002BFAD0D1
:1055A000294BD3F818357B8200237B613BE0002335
:1055B000FB81254B0022C3F80821234B0022C3F8AE
:1055C0001C25214B0022C3F81C2500BF1E4BD3F81D
:1055D0000831002BFAD01C4B0022C3F808211A4BCB
:1055E000D3F81835FB81B7F90E301B02FB8100BFE1
:1055F000154BD3F80831002BFAD0134B0022C3F817
:105600000821114BD3F818359AB2FB8913439BB28A
:10561000FB817B699B007A681344B7F90E201A60FE
:105620007B6901337B617B69032BC0DD4FF0A042B6
:10563000044B1B68C2F8083500BF1C37BD465DF837
:10564000047B70471C0200200030004080B400AF93
:105650001E4B0022C3F804251C4B0122C3F8082569
:105660001A4B0022C3F81025184B0122C3F840251D
:10567000164B0122C3F84425144B0222C3F8002222
:105680004FF0A0438022C3F81825114B114AC3F8EC
:105690001425114B2022C3F804250F4BD3F80038F2
:1056A0000D4A43F02003C2F800380B4B0B4AC3F8F5
:1056B0003825094B0A4AC3F83C25044B01221A60DD
:1056C00000BFBD465DF8047B704700BF00900040FE
:1056D000006000400307130000F0014040910040CB
:1056E00004600040000000002DE9B0438AB000AF24
:1056F00000237B6210E0564A7B6A52F8233007EEA3
:10570000903AF8EEE77A534A7B6A9B001344C3ED64
:10571000007A7B6A01337B627B6A032BEBDD4E4BA5
:10572000D3ED007A37EEA77A4C4BD3ED007A67EED3
:10573000277AB0EE670A01F0B3FC87ED050A464B05
:10574000D3ED007A37EEA77A444BD3ED007A67EEBB
:10575000277AB0EE670A01F079FD87ED040A3E4B27
:10576000D3ED007A37EEA77A3D4BD3ED007A67EEA2
:10577000277AB0EE670A01F093FC87ED030A364BF7
:10578000D3ED007A37EEA77A354BD3ED007A67EE8A
:10579000277AB0EE670A01F059FD87ED020A2F4B18
:1057A0001B68184604F072F925A3D3E9002304F01E
:1057B0000FF803460C461846214604F059FC0246F1
:1057C000264B1A60264B1B68184604F05FF91EA38F
:1057D000D3E9002303F0FCFF03460C46184621469C
:1057E00004F046FC02461E4B1A601C4BD3ED007AB7
:1057F000B6EE007AF4EEC77AF1EE10FA09DD174B37
:10580000D3ED007AB7EE007A77EEC77A134BC3ED8B
:10581000007A134BD3ED007AB6EE007AF4EEC77A35
:10582000F1EE10FA09DD0E4BD3ED007AB7EE007AF7
:1058300077EEC77A0A4BC3ED007A00233B6241E260
:105840001A4D2EC6C03ABA3F0F98EA76B479BF3FD8
:105850008410002068010020280000205C01002046
:1058600060010020CF4A3B6A52F8233007EE903A9D
:10587000F8EEE77AC7ED017ACB4A3B6A9B00134406
:1058800093ED007AC94BD3ED007A67EE277AC64ACA
:105890003B6A9B001344C3ED007AC54A3B6A9B00F8
:1058A000134493ED007AC14BD3ED007A67EE277A6B
:1058B000BF4A3B6A9B001344C3ED007ABA4A3B6A75
:1058C0009B0013441B68184604F0E0F804460D469C
:1058D00097ED017AD7ED057A67EE277A17EE900AF1
:1058E00004F0D4F880468946B04B1B68184604F093
:1058F000CDF802460B464FF00000AE4903F066FFBC
:1059000002460B464046494604F018F902460B464B
:105910002046294603F05CFF03460C461846214604
:1059200004F0A6FB0146A04A3B6A9B0013441960A1
:105930009F4A3B6A9B0013441B68184604F0A6F874
:1059400004460D4697ED017AD7ED047A67EE277A83
:1059500017EE900A04F09AF880468946934B1B682C
:10596000184604F093F802460B464FF000009149A8
:1059700003F02CFF02460B464046494604F0DEF891
:1059800002460B462046294603F022FF03460C46FA
:105990001846214604F06CFB0146854A3B6A9B0091
:1059A00013441960844A3B6A9B00134493ED007AC8
:1059B0007E4BD3ED007A67EE277A7F4A3B6A9B00E5
:1059C0001344C3ED007A7D4A3B6A9B00134493ED78
:1059D000007A764BD3ED007A67EE277A774A3B6AF6
:1059E0009B001344C3ED007A734A3B6A9B00134447
:1059F0001B68184604F04AF804460D4697ED017AF4
:105A0000D7ED037A67EE277A17EE900A04F03EF896
:105A100080468946654B1B68184604F037F80246F5
:105A20000B464FF00000634903F0D0FE02460B46E0
:105A30004046494604F082F802460B462046294675
:105A400003F0C6FE03460C461846214604F010FB40
:105A50000146594A3B6A9B0013441960574A3B6A06
:105A60009B0013441B68184604F010F804460D46CA
:105A700097ED017AD7ED027A67EE277A17EE900A52
:105A800004F004F880468946484B1B68184603F02A
:105A9000FDFF02460B464FF00000464903F096FE1C
:105AA00002460B464046494604F048F802460B467B
:105AB0002046294603F08CFE03460C461846214634
:105AC00004F0D6FA01463D4A3B6A9B001344196034
:105AD000354A3B6A9B00134493ED007A324A3B6A95
:105AE0009B001344D3ED007A27EE277A304A3B6AB5
:105AF0009B001344D3ED006A2D4A3B6A9B0013447C
:105B0000D3ED007A66EEA77A37EE277A2A4A3B6A07
:105B10009B001344D3ED006A274A3B6A9B00134461
:105B2000D3ED007A66EEA76A244A3B6A9B001344D1
:105B300093ED006A214A3B6A9B001344D3ED007A3F
:105B400066EE277A76EEA77AB4EEE77AF1EE10FAEF
:105B500041DD786803F09AFF04460D46124A3B6A1D
:105B60009B00134493ED007AD7ED057A27EE277A50
:105B70000F4A3B6A9B001344D3ED006AD7ED047AC9
:105B800066EEA77A77EE277A17EE900A03F07EFF8B
:105B900002460B4603F01CFE02460B4620462946F1
:105BA0000EE000BF841000201C0100202400002013
:105BB0002C0100200000F03F3C0100204C0100209F
:105BC00003F004FE03460C461846214604F050FA42
:105BD0000346FB6130E0786803F058FF04460D4649
:105BE000734A3B6A9B00134493ED007AD7ED037A26
:105BF00027EE277A6F4A3B6A9B001344D3ED006A75
:105C0000D7ED027A66EEA77A77EE277A17EE900A3A
:105C100003F03CFF02460B4603F0DAFD02460B465A
:105C20002046294603F0D2FD03460C46184621467D
:105C300004F01EFA0346FB615F4A3B6A9B00134473
:105C40001B68184603F022FF55A3D3E9002303F095
:105C500075FF03460C461846214604F009FA014632
:105C6000554A3B6A9B0013441960534A3B6A9B00A8
:105C700013441B68184603F009FF04460D46F869F3
:105C800003F004FF48A3D3E9002303F057FF0246C3
:105C90000B462046294603F09BFD03460C4618465A
:105CA000214604F0E5F90146434A3B6A9B00134450
:105CB0001960424A3B6A9B001344FA691A603B6AC6
:105CC00001333B623B6A032B7FF7CCAD3C4B1B6837
:105CD000002B5ED00023BB6123E03A4B1A683A4B9D
:105CE0001B68B96901FB03F1384B1B680B449B002F
:105CF00013443249BA6992000A4412681A60344B5C
:105D00001A68314B1B68B96901FB03F12F4B1B6803
:105D10000B449B0013444FF000021A60BB6901332F
:105D2000BB61BB69032BD8DD284B1B680133274AB5
:105D30001360264B1A68244B1B689A4229DB234BBD
:105D400000221A60234B01221A60234B1B68002B90
:105D50000FD1214B01221A601A4B204A1A601C4BAA
:105D60001F4A1A601F4B204A1A60204B204A1A60B3
:105D70000FE0194B00221A60124B1B4A1A60144B99
:105D80001B4A1A60174B154A1A60184B144A1A60BE
:105D900000BF00BF2837BD46BDE8B083AFF3008029
:105DA000AE47E17A14AEEF3F7B14AE47E17A843F11
:105DB0003C0100204C0100207801002068010020F7
:105DC0000C0000201400002010000020140100200E
:105DD000180000201801002010010020800C002075
:105DE000840E00201C000020F4070020200000206A
:105DF000F409002080B483B000AF094B9B684033A6
:105E00007B60F1EE103A3B607B681B6823F09F02D9
:105E10007B681A6000BF0C37BD465DF8047B704795
:105E200030EF00E090B589B000AF724B1B68002BDB
:105E300001D10023DAE06F4B00221A600023FB61DE
:105E400023E06D4B1A686D4B1B68F96901FB03F386
:105E50009B00D018684B1A68684B1B68F96901FBF6
:105E600003F340339B00D418654B1A68634B1B68DF
:105E7000F96901FB03F340339B0013441A462146A2
:105E800000F0D6FEFB690133FB61FB69032BD8DD13
:105E90000023BB611FE000237B6116E0564B1A68AC
:105EA000564B1B68B96901FB03F17B690B449B00EE
:105EB0001A44BB69D9007B690B44126851499B00A5
:105EC0000B441A607B6901337B617B69072BE5DD3D
:105ED000BB690133BB61BB69032BDCDD00233B6184
:105EE0007FE00023FB6076E0434B1A68434B1B685E
:105EF000396901FB03F303F14001FB680B449B008C
:105F000013441B68BB603E4B1A683C4B1B683969E5
:105F100001FB03F303F14001FB680B449B001344B6
:105F20001B687B6097ED027AD7ED027A27EE277A1D
:105F3000D7ED016AD7ED017A66EEA77A77EE277A78
:105F4000C7ED007A2C4B1A683B6901332B4909686D
:105F500001FB03F303F13F01FB68CB1A9B001344E1
:105F60001B68BB60264B1A683B69013323490968EB
:105F700001FB03F303F13F01FB68CB1A9B001344C1
:105F80001B687B6097ED027AD7ED027A27EE277ABD
:105F9000D7ED016AD7ED017A66EEA77A77EE277A18
:105FA00097ED007A77EE277AC7ED007A134B1B68DE
:105FB0003A6902FB03F2FB68D41897ED000A01F07E
:105FC000AFF9F0EE407A104AA3001344C3ED007A13
:105FD000FB680133FB60FB68032B85DD3B69013304
:105FE0003B613B69032B7FF77CAF012318462437C5
:105FF000BD4690BD180100201C00002010000020AC
:1060000020000020F40B00207405002080B400AFB5
:10601000024B1846BD465DF8047B704774050020AE
:1060200080B400AF024B1846BD465DF8047B704754
:10603000F40B002080B582B000AF786005212620E7
:10604000FFF712F92620FFF7F5F82620FFF7D8F81A
:10605000034A7B68136000BF0837BD4680BD00BFA0
:106060000C00002080B500AF0F4BD3F80031012B9E
:1060700018D10D4B0022C3F800210C4B1B78DBB26A
:10608000002B0ED1094B01221A700948FFF770FA54
:10609000FFF72AFB074B01221A70044B00221A70EB
:1060A00000E000BF80BD00BF00600040880100200C
:1060B000841000206401002090B585B000AF044634
:1060C000084611461A462346FB710346BB710B4630
:1060D0007B7113463B713B791846FFF725F997F81A
:1060E000203000211846FFF731F93B79012202FAEE
:1060F00003F31A46684B1A604FF0A042664B1B68C8
:10610000C2F808357A79B979FB791846FFF734F97E
:10611000624B00221A60614A1378052161F3020381
:1061200013705E4A1378052161F3C50313705B4A4F
:106130001388052161F388131380584A5378052189
:1061400061F343035370564B00221A60544A93780C
:10615000022161F383039370514A93786FF305131F
:1061600093704F4A93786FF3861393704C4A9378E9
:106170006FF3C71393704A4A5378062161F34713AC
:106180005370474A9378012161F301039370444BA4
:1061900050221A70434B00221A60424A137843F08F
:1061A000400313703F4A93786FF3030393703D4AA3
:1061B00053786FF3030353703A4A13786FF3C7139E
:1061C0001370394B00221A60374A93786FF301033A
:1061D0009370354A937843F010039370324A937862
:1061E00043F008039370304A53786FF3C71353702A
:1061F0002D4A53786FF3861353702B4A93780221FC
:1062000061F387139370284A93786FF38203937036
:10621000254A93786FF345139370204B1B681946FA
:106220000B20FFF7D3F8204B1B6819460C20FFF713
:10623000CDF81B4B1B6819460D20FFF7C7F8194B0B
:106240001B6819460E20FFF7C1F80D20FFF72CF947
:10625000F860134B1B68FA689A4202D1134B012273
:106260001A600120FFF7E6FEFFF7F0F997F82030FB
:106270001B0243F4003343F001030D4AC2F810350A
:106280000B4B0122C3F804230620FEF7B9FF00BF21
:106290001437BD4690BD00BF1C020020780C0020C2
:1062A000740C00207C0C0020800E00208C0100204B
:1062B0000060004080B400AF074B1B78DBB2002BBE
:1062C00004D0054B00221A70012300E00023184679
:1062D000BD465DF8047B70476401002080B400AFC8
:1062E000034B1B681846BD465DF8047B704700BF32
:1062F0008C01002080B485B000AF7860344BD3F8B7
:106300000035002B03D0324B0022C3F80025304B60
:106310004FF0FF32C3F86C250023FB601DE02D4ACF
:10632000FB6813441B782A4A1946FB6803F5AC73D3
:1063300042F82310284AFB6852F8233099B2274AC2
:10634000FB6822F81310FB680433244A40F2FF3143
:1063500022F81310FB680133FB60FB68032BDEDDC2
:106360001B4B0122C3F80025194B0022C3F804255A
:10637000174B4FF48062C3F80825154B0022C3F871
:106380000C25134B0222C3F81025114B0022C3F831
:1063900014250F4B114AC3F820250D4B0822C3F8D2
:1063A00024257B681A010A4BC3F82825084B1022C4
:1063B000C3F80023064B01229A60054B0122C3F863
:1063C000002200BF1437BD465DF8047B704700BF54
:1063D00000C00140A41000202C000020A8100020C4
:1063E00080B400AF0B4BD3F81031002B0DD0094B0C
:1063F0000022C3F800254FF0A042074B1B68C2F8EB
:106400000C35044B0022C3F8102100BFBD465DF8D7
:10641000047B704700C001409410002080B489B014
:1064200000AFF860B9607A603B6007F114030022A6
:106430001A605A6010233B750F237B750D23BB75C3
:106440000C23FB750023FB6120E007F11402FB69BC
:1064500013441978124AFB6913440A461A70104A09
:10646000FB6913441B781A460123934019460D4AD1
:10647000FB6942F823104FF0A0420A49FB6951F82A
:106480002330C2F81835FB690133FB61FB69032B2C
:10649000DBDD00BF2437BD465DF8047B704700BFDD
:1064A000A41000209410002080B485B000AF786064
:1064B0007B687A6802FB03F3FB60FB689B11FB605F
:1064C000FB68B3F5806F02DB40F2FF33FB60FB68D3
:1064D00018461437BD465DF8047B704780B584B01C
:1064E00000AFF860B9607A603B60F868FFF7DCFFE6
:1064F00002460D4B1A60B868FFF7D6FF02460A4BFA
:106500005A607868FFF7D0FF0246074B9A603868F8
:10651000FFF7CAFF0246044BDA60B869FFF7EAFEEC
:1065200000BF1037BD4680BD2C00002080B483B072
:1065300000AF78604FF0A04318460C37BD465DF8B9
:10654000047B704780B584B000AF78600846114680
:106550001A460346FB700B46BB7013467B703B1D0F
:106560001846FFF7E3FFF860FA78BB785B001A4340
:106570007B789B001A433B7E1B0242EA03013B7F70
:106580001B047A681943FB6802F5E07243F8221095
:1065900000BF1037BD4680BD80B584B002AF7860C3
:1065A0000023019300230093002301220121786836
:1065B000FFF7C8FF00BF0837BD4680BD80B584B077
:1065C00002AF78600B46FB70FA780023019300233A
:1065D00000931346002200217868FFF7B3FF00BF45
:1065E0000837BD4680BD000080B485B000AF0346CB
:1065F0000A46FB711346BB7103E01F4BD3F81835F5
:10660000FB731D4BD3F80831002BF6D14FF0A0429D
:106610001A4B1B68C2F80C35174AFB79C2F81C35B7
:1066200000BF154BD3F80831002BFAD0124BD3F82A
:106630001835FB73104B0022C3F808210E4ABB79B2
:10664000C2F81C3500BF0C4BD3F80831002BFAD030
:10665000094BD3F81835FB73074B0022C3F8082108
:106660004FF0A042054B1B68C2F8083500BF143735
:10667000BD465DF8047B704700300040BC10002030
:1066800080B485B000AF0346FB710023FB7303E0C9
:10669000214BD3F81835FB731F4BD3F80831002B6F
:1066A000F6D14FF0A0421D4B1B68C2F80C35FB79A8
:1066B00063F07F03DAB2184BC3F81C2500BF164BFA
:1066C000D3F80831002BFAD0134BD3F81835FB73ED
:1066D000114B0022C3F808210F4B0022C3F81C25E0
:1066E00000BF0D4BD3F80831002BFAD00A4BD3F87A
:1066F0001835FB73084B0022C3F808214FF0A04265
:10670000064B1B68C2F80835FB7B18461437BD469C
:106710005DF8047B704700BF00300040BC100020D3
:1067200080B485B000AF03463A60FB710B46BB7185
:106730000023FB7203E0284BD3F81835FB72264B7D
:10674000D3F80831002BF6D14FF0A042234B1B6841
:10675000C2F80C35FB7963F07F03DAB21E4BC3F845
:106760001C2500BF1C4BD3F80831002BFAD01A4B64
:10677000D3F81835FB72184B0022C3F80821002308
:10678000FB6018E0144B0022C3F81C2500BF124B1D
:10679000D3F80831002BFAD00F4BD3F81815FB684B
:1067A0003A681344CAB21A700B4B0022C3F808218E
:1067B000FB680133FB60BB79FA689A42E2DB4FF079
:1067C000A042064B1B68C2F8083500BF1437BD460F
:1067D0005DF8047B704700BF00300040BC10002013
:1067E00080B584B000AF1B20FFF74AFF0346FB7360
:1067F0007B4AFB7B1370FB7B03F0C003002B01D1B2
:106800000023E8E0774A0F210C20FFF789FF754B42
:10681000BB60BB685A1CBA601B78FB80BB685A1C03
:10682000BA601B781B029AB2FB8813449BB2FB80B0
:106830006D4AFB8853856C4B93ED027AB7F90630AD
:1068400007EE903AF8EEE77A67EE277A664BC3EDEB
:10685000067ABB685A1CBA601B78FB80BB685A1C5E
:10686000BA601B781B029AB2FB8813449BB2FB8070
:106870005D4AFB8893855C4B93ED027AB7F906304D
:1068800007EE903AF8EEE77A67EE277A564BC3EDBB
:10689000077ABB685A1CBA601B78FB80BB685A1C1D
:1068A000BA601B781B029AB2FB8813449BB2FB8030
:1068B0004D4AFB88D3854C4B93ED027AB7F90630ED
:1068C00007EE903AF8EEE77A67EE277A464BC3ED8B
:1068D000087ABB685A1CBA601B78FB80BB685A1CDC
:1068E000BA601B781B029AB2FB8813449BB2FB80F0
:1068F0003D4AFB8893843C4B93ED017AB7F906300F
:1069000007EE903AF8EEE77A67EE277A364BC3ED5A
:10691000037ABB685A1CBA601B78FB80BB685A1CA0
:10692000BA601B781B029AB2FB8813449BB2FB80AF
:106930002D4AFB88D3842C4B93ED017AB7F90630AE
:1069400007EE903AF8EEE77A67EE277A264BC3ED2A
:10695000047ABB685A1CBA601B78FB80BB685A1C5F
:10696000BA601B781B029AB2FB8813449BB2FB806F
:106970001D4AFB8813851C4B93ED017AB7F906304D
:1069800007EE903AF8EEE77A67EE277A164BC3EDFA
:10699000057A00233B60BB685A1CBA601B783B60D9
:1069A000BB685A1CBA601B781B021A463B6813442A
:1069B0003B60BB685A1CBA601B781B041A463B68D4
:1069C00013443B60084A3B681363074B9B6B0133DE
:1069D000054A9363012318461037BD4680BD00BFAA
:1069E000B8100020F8100020BC10002080B582B044
:1069F00000AFBB1D1A4602217820FFF791FEFA88EE
:106A0000024B9A8600BF0837BD4680BDBC100020EF
:106A100090B583B000AFBB1D1A4602212020FFF7BE
:106A20007FFEB7F9063007EE903AF8EEE77A17EEF8
:106A3000900A03F02BF84FF000024FF0814303F06F
:106A4000A7F903460C46184621464FF000020A4BB0
:106A500002F0BEFE03460C461846214603F008FB32
:106A60000246064B1A65054B1B6D07EE903AB0EED9
:106A7000670A0C37BD4690BD00003740BC100020AF
:106A800080B500AFB6217E20FFF7AEFD642001F097
:106A9000A1FF11217E20FFF7A7FD642001F09AFFDE
:106AA00015217E20FFF7A0FD642001F093FF112146
:106AB0007E20FFF799FD642001F08CFF15217E20D8
:106AC000FFF792FD642001F085FF00214520FFF7CC
:106AD0008BFD00214720FFF787FDA8214020FFF70D
:106AE00083FD012001F076FF05214120FFF77CFDA9
:106AF0001B4B1C4A5A60012001F06CFF28214220E8
:106B0000FFF772FD012001F065FF00214320FFF730
:106B10006BFD134B144A9A60012001F05BFF1521B5
:106B20007A20FFF761FD012001F054FF0B217B204B
:106B3000FFF75AFD012001F04DFF10215120FFF712
:106B400053FD0A215320FFF74FFD80215620FFF708
:106B50004BFD00215420FFF747FD00BF80BD00BF63
:106B6000BC100020CDCC9C3A54A08B3A90B583B099
:106B700000AF0446084611461A462346FB710346F9
:106B8000BB710B467B7113463B71BB791846FFF70F
:106B900003FD7B791846FFF7FFFC3B791846FFF7AA
:106BA000FBFCFB7900211846FFF708FD3B79012229
:106BB00002FA03F31A460D4B1A604FF0A0420B4B3A
:106BC0001B68C2F80835094B00229A63642001F063
:106BD00001FF064B064A5A60044B064A9A60FFF7CB
:106BE0004FFF00BF0C37BD4690BD00BFBC1000205A
:106BF000CDCC9C3A5C7C8B3980B582B000AF002054
:106C0000FFF73EFD0346FB71FB79D12B01D1012338
:106C100000E0002318460837BD4680BD80B400AFB1
:106C2000024B1846BD465DF8047B7047BC1000203F
:106C300080B493B000AFF860B9607A604FF07E53D3
:106C40007B644FF000033B64EA4BFB63E94BBB639F
:106C5000E84B7B63E84B3B63FB6893ED007AFB6892
:106C60001033D3ED007A77EE277AC7ED0B7AFB6805
:106C700093ED007AFB681033D3ED007A77EE677AF4
:106C8000C7ED0A7AFB68083393ED007AFB68183386
:106C9000D3ED007A77EE277AC7ED097AFB680833DF
:106CA00093ED007AFB681833D3ED007A77EE677ABC
:106CB000C7ED087AFB68043393ED007AFB68143360
:106CC000D3ED007A77EE277AC7ED077AFB680433B5
:106CD00093ED007AFB681433D3ED007A77EE677A90
:106CE000C7ED067AFB680C3393ED007AFB681C3322
:106CF000D3ED007A77EE277AC7ED057AFB680C337F
:106D000093ED007AFB681C33D3ED007A77EE677A57
:106D1000C7ED047A97ED0B7AD7ED097A37EE277A2B
:106D2000D7ED077A37EE277AD7ED057A77EE277A0F
:106D3000BB68C3ED007A7B684FF000021A6097EDE4
:106D4000087AD7ED107A27EE277AD7ED0A7A37EE50
:106D5000277AD7ED046AD7ED107A66EEA76AD7EDE9
:106D6000067A76EEA76AD7ED0E7A66EEA77A37EE48
:106D7000277AD7ED046AD7ED117A66EEA76AD7EDC8
:106D80000F7A66EEA77ABB68043377EE677AC3EDB5
:106D9000007A97ED087AD7ED117A27EE277AD7EDAA
:106DA000046AD7ED117A66EEA76AD7ED0E7A66EE21
:106DB000A77A37EE277AD7ED046AD7ED107A66EE18
:106DC000A76AD7ED067A76EEA76AD7ED0F7A66EE58
:106DD000A77A7B68043377EE277AC3ED007A97EDC4
:106DE0000B7AD7ED097A37EE677AD7ED076AD7EDD8
:106DF000057A76EEE76AD7ED107A66EEA77ABB6879
:106E0000083377EE277AC3ED007A97ED077AD7ED4E
:106E1000057A37EE677A7B680833D7ED117A67EE2B
:106E2000277AC3ED007A97ED087AD7ED107A67EEEE
:106E3000277A97ED0A7A37EE677AD7ED046AD7EDAD
:106E4000107A66EEA77AD7ED066A76EEE76AD7ED96
:106E50000C7A66EEA77A37EE277AD7ED046AD7ED7B
:106E6000117A66EEA76AD7ED0D7A66EEA77ABB684F
:106E70000C3377EE277AC3ED007AD7ED087AB1EEBE
:106E8000677AD7ED117A27EE277AD7ED046AD7ED26
:106E9000117A66EEA76AD7ED0C7A66EEA77A37EE1E
:106EA000677AD7ED046AD7ED107A66EEA77AD7ED48
:106EB000066A76EEE76AD7ED0D7A66EEA77A7B680A
:106EC0000C3377EE277AC3ED007A97ED0B7AD7ED86
:106ED000097A37EE277AD7ED077A37EE677ABB68FB
:106EE0001033D7ED057A77EE677AC3ED007A7B68C9
:106EF00010334FF000021A6097ED087AD7ED107A40
:106F000027EE277AD7ED0A7A37EE277AD7ED046A8B
:106F1000D7ED107A66EEA76AD7ED067A76EEA76A05
:106F2000D7ED0E7A66EEA77A37EE677AD7ED046A68
:106F3000D7ED117A66EEA76AD7ED0F7A66EEA77ADB
:106F4000BB68143377EE277AC3ED007A97ED087AA1
:106F5000D7ED117A27EE277AD7ED046AD7ED117AAB
:106F600066EEA76AD7ED0E7A66EEA77A37EE677AF5
:106F7000D7ED046AD7ED107A66EEA76AD7ED067AE8
:106F800076EEA76AD7ED0F7A66EEA77A7B681433A0
:106F900077EE677AC3ED007A97ED0B7AD7ED097A31
:106FA00037EE677AD7ED076AD7ED057A76EEE76AAE
:106FB000D7ED107A66EEA77ABB68183377EE677A5A
:106FC000C3ED007A97ED077AD7ED057A77EE677A09
:106FD000B1EE677A7B681833D7ED117A67EE277ABE
:106FE000C3ED007A97ED087AD7ED107A67EE277A2D
:106FF00004E000BFF304353FF30435BF97ED0A7A90
:1070000037EE677AD7ED046AD7ED107A66EEA77A85
:10701000D7ED066A76EEE76AD7ED0C7A66EEA77AC8
:1070200037EE677AD7ED046AD7ED117A66EEA76A74
:10703000D7ED0D7A66EEA77ABB681C3377EE677AD8
:10704000C3ED007AD7ED087AB1EE677AD7ED117A01
:1070500027EE277AD7ED046AD7ED117A66EEA76A94
:10706000D7ED0C7A66EEA77A37EE277AD7ED046A69
:10707000D7ED107A66EEA77AD7ED066A76EEE76A64
:10708000D7ED0D7A66EEA77A7B681C3377EE677AC8
:10709000C3ED007A00BF4C37BD465DF8047B7047F6
:1070A00080B485B000AF87ED010A4FF00003FB60AC
:1070B00007E0D7ED017A9FED5F7A77EE877AC7ED2B
:1070C000017AD7ED017A9FED5C7AF4EEC77AF1EEA2
:1070D00010FAEED407E0D7ED017A9FED567A77EEFD
:1070E000C77AC7ED017AD7ED017A9FED547AF4EEB5
:1070F000C77AF1EE10FAEEDCD7ED017AF5EEC07A40
:10710000F1EE10FA46D5D7ED017A9FED4D7A27EED4
:10711000877AD7ED017ADFED4B6A67EEA66AD7ED85
:10712000017A66EEA77A77EE277AC7ED037AD7ED74
:10713000037AF5EEC07AF1EE10FA16D5D7ED037AA0
:10714000B1EE677AD7ED037A27EE277AD7ED037A87
:1071500077EE677A9FED3C7A67EE877A97ED037A50
:1071600077EE277AC7ED037A5AE097ED037AD7EDE9
:10717000037A27EE277AD7ED037A77EE677A9FEDC9
:10718000327A67EE877A97ED037A77EE277AC7ED42
:10719000037A45E0D7ED017A9FED297A27EE877AC9
:1071A000D7ED017ADFED276A67EEA66AD7ED017A9F
:1071B00066EEA77A77EE677AC7ED037AD7ED037AA2
:1071C000F5EEC07AF1EE10FA16D5D7ED037AB1EEEE
:1071D000677AD7ED037A27EE277AD7ED037A77EE31
:1071E000677A9FED197A67EE877A97ED037A77EEE3
:1071F000277AC7ED037A13E097ED037AD7ED037A88
:1072000027EE277AD7ED037A77EE677A9FED0E7A2D
:1072100067EE877A97ED037A77EE277AC7ED037AE0
:10722000FB6807EE903AB0EE670A1437BD465DF88A
:10723000047B7047DB0FC940DB0F49C0DB0F4940BF
:1072400083F9A23F7B81CF3E6666663E80B582B001
:1072500000AF87ED010AD7ED017A9FED077A77EE4F
:10726000877AB0EE670AFFF71BFFF0EE407AB0EEC8
:10727000670A0837BD4680BDDB0FC93F80B483B0C5
:1072800000AF87ED010AD7ED017A9FED0B7A27EE6B
:10729000877AD7ED017A27EE277AD7ED017A67EE64
:1072A000277A97ED017A77EE677AB0EE670A0C37A6
:1072B000BD465DF8047B7047ADAA2A3E80B483B01A
:1072C00000AF87ED010AD7ED017AB6EE007A27EE1E
:1072D000877AD7ED017A67EE277AB7EE007A37EE34
:1072E000677AD7ED017ADFED0C6A67EEA66AD7ED13
:1072F000017A66EEA76AD7ED017A66EEA76AD7ED46
:10730000017A66EEA77A77EE277AB0EE670A0C3735
:10731000BD465DF8047B7047B4AA2A3D000000001A
:10732000B0B588B000AF87ED010AD7ED017AF5EE70
:10733000C07AF1EE10FA01D55D4BA9E0D7ED017AE4
:10734000F5EE407AF1EE10FA02D14FF000039FE023
:107350007B68FB614FF07E53BB614FF07E537B61D6
:1073600000233B6117E0F86902F090FB4CA3D3E9DE
:10737000002302F0E3FB03460C461846214602F0C8
:1073800077FE0346FB61D7ED057AB2EE047A67EE2D
:10739000877AC7ED057AD7ED077A9FED467AF4EE46
:1073A000C77AF1EE10FA04DD3B695A1C3A61132BDF
:1073B000D9DD17E0D7ED077A9FED3E7A67EE877A41
:1073C000C7ED077A786902F061FB37A3D3E90023A0
:1073D00002F0B4FB03460C461846214602F048FE74
:1073E00003467B61F86902F051FB2DA3D3E900232A
:1073F00002F016FE0346002B04D03B695A1C3A618A
:10740000132BD7DD0023FB601CE097ED077AD7ED47
:10741000067A77EE277AB6EE007A67EE877AC7EDBE
:10742000027AD7ED076A97ED027AC6EE877A97ED72
:10743000067A67EE277AC7ED067ABB68FB61FB68C0
:107440000133FB60FB68052BDFDD786902F01EFB72
:107450004FF00002184B02F071FB03460C46254624
:107460001C4697ED077AD7ED067A77EE277A17EE66
:10747000900A02F00BFB02460B462046294602F01A
:107480005DFB03460C461846214602F0F1FD03461B
:1074900007EE903AB0EE670A2037BD46B0BD00BF98
:1074A0007B14AE47E17A843F9A9999999999B93FAB
:1074B000000080BF0000C8420000E03F80B582B0FD
:1074C00000AF78607B6893ED007A7B68D3ED007A3B
:1074D00027EE277A7B68D3ED016A7B68D3ED017ACA
:1074E00066EEA77A37EE277A7B68D3ED026A7B686F
:1074F000D3ED027A66EEA77A37EE277A7B68D3ED72
:10750000036A7B68D3ED037A66EEA77A77EE277A73
:10751000B0EE670AFFF704FFF0EE407AB0EE670ABC
:107520000837BD4680BD80B582B000AF78607B680B
:1075300093ED007A7B68D3ED007A27EE277A7B689B
:10754000D3ED016A7B68D3ED017A66EEA77A37EE58
:10755000277A7B68D3ED026A7B68D3ED027A66EE08
:10756000A77A77EE277AB0EE670AFFF7D9FEF0EE3A
:10757000407AB0EE670A0837BD4680BD80B584B05A
:1075800000AF78607868FFF799FF87ED030AD7EDC1
:10759000037AF5EEC07AF1EE10FA00DC2FE0F7EE98
:1075A000006A97ED037AC6EE877AC7ED027A7B68A8
:1075B00093ED007AD7ED027A67EE277A7B68C3ED08
:1075C000007A7B6893ED017AD7ED027A67EE277A2D
:1075D0007B68C3ED017A7B6893ED027AD7ED027A7E
:1075E00067EE277A7B68C3ED027A7B6893ED037AB6
:1075F000D7ED027A67EE277A7B68C3ED037A00BF86
:107600001037BD4680BD80B584B000AF7860786823
:10761000FFF789FF87ED030AD7ED037AF5EEC07A0D
:10762000F1EE10FA00DC25E0F7EE006A97ED037A40
:10763000C6EE877AC7ED027A7B6893ED007AD7EDC4
:10764000027A67EE277A7B68C3ED007A7B6893ED58
:10765000017AD7ED027A67EE277A7B68C3ED017A6B
:107660007B6893ED027AD7ED027A67EE277A7B6822
:10767000C3ED027A00BF1037BD4680BD80B483B031
:1076800000AF786039607B68D3ED007AF1EE677AFD
:107690003B68C3ED007A7B68D3ED017AF1EE677A3F
:1076A0003B68C3ED017A7B68D3ED027AF1EE677A2D
:1076B0003B68C3ED027A7B68DA683B68DA6000BF3A
:1076C0000C37BD465DF8047B704780B485B000AFD1
:1076D000F860B9607A60FB6893ED037ABB68D3ED1C
:1076E000037A27EE277AFB68D3ED006ABB68D3EDF7
:1076F000007A66EEA76AFB6893ED016ABB68D3ED7A
:10770000017A66EE277A76EEA76AFB6893ED026A45
:10771000BB68D3ED027A66EE277A76EEA77A77EE2B
:10772000677A7B68C3ED037AFB6893ED037ABB68E5
:10773000D3ED007A27EE277ABB68D3ED036AFB68A6
:10774000D3ED007A66EEA77A37EE277AFB68D3EDA1
:10775000016ABB68D3ED027A66EEA77A37EE277A24
:10776000FB68D3ED026ABB68D3ED017A66EEA77AB7
:1077700077EE677A7B68C3ED007AFB6893ED037A56
:10778000BB68D3ED017A27EE277ABB68D3ED036A95
:10779000FB68D3ED017A66EEA77A37EE277AFB68AD
:1077A000D3ED026ABB68D3ED007A66EEA77A37EEB6
:1077B000277AFB68D3ED006ABB68D3ED027A66EEE8
:1077C000A77A77EE677A7B68C3ED017AFB6893ED61
:1077D000037ABB68D3ED027A27EE277ABB68D3ED34
:1077E000036AFB68D3ED027A66EEA77A37EE277A52
:1077F000FB68D3ED006ABB68D3ED017A66EEA77A29
:1078000037EE277AFB68D3ED016ABB68D3ED007AC7
:1078100066EEA77A77EE677A7B68C3ED027A00BFDF
:107820001437BD465DF8047B704780B592B000AF59
:10783000786039604FF000037B643B681B68BB6372
:107840003B685B68FB633B689B683B6407F128030C
:1078500019467868FFF712FF07F1180207F12801AF
:1078600007F138031846FFF730FF07F1080207F168
:10787000180319467868FFF728FFBA683B681A6052
:10788000FA683B685A603A693B689A6000BF4837BB
:10789000BD4680BD80B48DB000AF786139617B6931
:1078A00093ED017A3B69D3ED027A27EE277A7B6963
:1078B000D3ED026A3B69D3ED017A66EEA77A77EEE3
:1078C000677AC7ED067A7B6993ED027A3B69D3ED5F
:1078D000007A27EE277A7B69D3ED006A3B69D3ED06
:1078E000027A66EEA77A77EE677AC7ED077A7B6948
:1078F00093ED007A3B69D3ED017A27EE277A7B6915
:10790000D3ED016A3B69D3ED007A66EEA77A77EE94
:10791000677AC7ED087A07F1240307F1180207CA4E
:1079200083E80700796ABA6AFB6A06EE901A07EEE6
:10793000102A07EE903AB0EE660AF0EE470AB0EE73
:10794000671A3437BD465DF8047B704780B483B056
:1079500000AF786039607B6893ED007A3B68D3EDC7
:10796000007A27EE277A7B68D3ED016A3B68D3ED76
:10797000017A66EEA77A37EE277A7B68D3ED026A42
:107980003B68D3ED027A66EEA77A77EE277AB0EEFF
:10799000670A0C37BD465DF8047B704780B596B02A
:1079A00000AF786087ED000A7B681B687B647B68AA
:1079B0005B68BB647B689B68FB6407F14403184603
:1079C000FFF721FE07F1440319464C48FFF72DFF4E
:1079D00007F144031846FFF716FE4FF00003BB63A0
:1079E0004FF00003FB634FF07E533B6407F1380216
:1079F00007F1440311461846FFF7A8FF87ED150A63
:107A0000D7ED157A9FED3E7AF4EEC77AF1EE10FAD3
:107A10006FDC07F1380207F1440311461846FFF7FF
:107A200039FFF0EE406AB0EE607AF0EE417AC7EDD1
:107A30000B6A87ED0C7AC7ED0D7AD7ED007AB6EEBA
:107A4000007A27EE877AD7ED007A67EE277AB7EECD
:107A5000007A77EE677AC7ED0A7AD7ED007A9FED64
:107A6000297A27EE877AD7ED007A27EE277AD7EDA5
:107A7000007A67EE277A97ED007A77EE677AC7ED9E
:107A8000147A97ED0B7AD7ED147A67EE277AC7ED63
:107A9000077A97ED0C7AD7ED147A67EE277AC7ED5F
:107AA000087A97ED0D7AD7ED147A67EE277AC7ED4D
:107AB000097A07F11C031846FFF760FD07F10C0275
:107AC00007F11C030D491846FFF7FFFD07F10C03F2
:107AD0001846FFF753FDBB69084AD360FB68074AA5
:107AE00013603B69054A53607B69044A936000BF99
:107AF00000E000BF5837BD4680BD00BF2011002008
:107B000077BE7F3FC1AA2A3E80B592B000AF7860B1
:107B100087ED000A7B681B68FB617B685B683B62E2
:107B20007B689B687B6207F11C0319464B48FFF793
:107B30007CFE97ED077AD7ED077A27EE277AD7ED07
:107B4000086AD7ED087A66EEA77A37EE277AD7ED7E
:107B5000096AD7ED097A66EEA77A77EE277AB0EE52
:107B6000670AFFF7DDFB87ED110A97ED117AD7ED74
:107B7000007A67EE277AC7ED107AD7ED107AB6EE65
:107B8000007A67EE877AB0EE670AFFF797FBF0EEB0
:107B9000407AC7ED0D7AD7ED107AB6EE007A67EE2F
:107BA000877AB0EE670AFFF769FB87ED0F0AF7EEF9
:107BB000006A97ED117AC6EE877AC7ED0E7A97EDD7
:107BC000077AD7ED0F7A27EE277AD7ED0E7A67EE90
:107BD000277AC7ED0A7A97ED087AD7ED0F7A27EE64
:107BE000277AD7ED0E7A67EE277AC7ED0B7A97EDF5
:107BF000097AD7ED0F7A27EE277AD7ED0E7A67EE5E
:107C0000277AC7ED0C7A07F10C0207F12803134914
:107C10001846FFF75AFDBB69104AD360FB680F4A4C
:107C200013603B690D4A53607B690C4A93600B48B3
:107C3000FFF7A4FC094B1B68094A1360074B5B68FC
:107C4000074A5360054B9B68054A9360034BDB680A
:107C5000034AD36000BF4837BD4680BD20110020D5
:107C60003011002080B400AF0A4B4FF07E52DA6032
:107C7000084B4FF000021A60064B4FF000025A60AA
:107C8000044B4FF000029A6000BFBD465DF8047BD4
:107C9000704700BF2011002080B500AFFFF7E2FF62
:107CA00000BF80BD00000000B0B58CB000AFFEF793
:107CB00097FD0346002B00F02F8100F0D3FD786282
:107CC000FEF7ACFF38623B6A1A6B9B4B1B68D31AFA
:107CD000FB62FB6A002B05DAFB6A03F1FF1303F575
:107CE0007F43FB623B6A1B6B934A1360FB6A07EEA0
:107CF000903AF8EEE77AC7ED0A7AD7ED0A7A9FED67
:107D00008F7A67EE877AC7ED0A7AB86A01F0BEFE0D
:107D100083A3D3E9002302F0A1F90346002B01D08D
:107D2000874BBB623B6ADB683B613B6A1B697B61DB
:107D30003B6A5B69BB613B6A93ED067A814BD3ED8D
:107D4000007A77EE677AC7ED017A3B6A93ED077A9E
:107D50007D4BD3ED007A77EE677AC7ED027A3B6A06
:107D600093ED087A794BD3ED007A77EE677AC7ED19
:107D7000037A07F110031846FFF7D5FB87ED070AD2
:107D8000D7ED077A9FED727AF4EEC77AF1EE10FA2A
:107D900040F3BC80D7ED077A9FED6E7AF4EEC77A98
:107DA000F1EE10FA40F1B2806B4B1B68002B40F3F0
:107DB000A680694B1B68013B674A136007F11003FB
:107DC0009FED660A1846FFF7E9FD5E4B1B681846F3
:107DD00001F05CFE54A3D3E9002301F0AFFE03469B
:107DE0000C461846214602F043F90246554B1A60EC
:107DF000544B1B68184601F049FE04460D463B6A89
:107E00009B69184601F042FE49A3D3E9002301F023
:107E100095FE02460B462046294601F0D9FC034652
:107E20000C461846214602F023F90246454B1A60DB
:107E3000454B1B68184601F029FE3BA3D3E90023FC
:107E400001F07CFE03460C461846214602F010F96C
:107E500002463D4B1A603C4B1B68184601F016FE6B
:107E600004460D463B6ADB69184601F00FFE30A35D
:107E7000D3E9002301F062FE02460B462046294664
:107E800001F0A6FC03460C461846214602F0F0F825
:107E900002462D4B1A602D4B1B68184601F0F6FD6B
:107EA00021A3D3E9002301F049FE03460C461846FE
:107EB000214602F0DDF80246244B1A60234B1B6872
:107EC000184601F0E3FD04460D463B6A1B6A18465E
:107ED00001F0DCFD16A3D3E9002301F02FFE0246DA
:107EE0000B462046294601F073FC03460C46184613
:107EF000214602F0BDF80246144B1A6006E007F175
:107F000010039FED170A1846FFF748FD3B1D97ED3C
:107F10000A0A1846FFF7F8FD00BF3037BD46B0BD6E
:107F20009A9999999999B93FAE47E17A14AEEF3F82
:107F30007B14AE47E17A843F90010020EE93233812
:107F4000CDCCCC3D94010020980100209C01002064
:107F5000B81E0D41E27A2C413C0000200AD7233C98
:107F600052499D3980B400AF024B1846BD465DF8BA
:107F7000047B70473011002080B483B000AF03460B
:107F8000FB71FB7903F01F02074997F907305B0982
:107F9000012000FA02F241F8232000BF0C37BD4651
:107FA0005DF8047B704700BF00E100E080B483B05F
:107FB00000AF0346FB71FB7903F01F02074997F9F5
:107FC00007305B09012000FA02F2203341F8232038
:107FD00000BF0C37BD465DF8047B704700E100E050
:107FE00080B483B000AF03463960FB7197F9073066
:107FF000002B0BDA3B68DAB20C49FB7903F00F0374
:10800000043B5201D2B20B441A7609E03B68DAB263
:10801000074997F907305201D2B20B4483F8002385
:1080200000BF0C37BD465DF8047B704700ED00E0F3
:1080300000E100E080B400AF1B4BD3F85035002BBB
:108040002CD0194BD3F85035042B04D0164BD3F851
:1080500050350C2B0CD100BF134BD3F85035042BEB
:10806000FAD000BF104BD3F850350C2BFAD016E0E5
:108070000D4B0022C3F800220B4B0022C3F8102145
:10808000094B01221A6100BF074BD3F85035002B72
:10809000FAD1054B0022C3F8102100E000BFBD4615
:1080A0005DF8047B704700BF0010004080B586B0CB
:1080B00000AFF860B9607A603B600120FFF776FF9F
:1080C000574B0122C3F8FC2F554B0422C3F80C2553
:1080D000534AFB68C2F80835BB68FA2B03D1504BF2
:1080E0000222C3F81025BB68B3F57A7F03D14C4B4D
:1080F0000022C3F81025BB6840F2E932934203D155
:10810000474B0322C3F81025BB68B3F5FA6F03D1C0
:10811000434B0122C3F81025414B424AC3F82425A2
:108120003F4B414AC3F828253D4B404AC3F81C2524
:108130003B4B3E4AC3F82025394B0022C3F82C257F
:10814000374B0122C3F8302500237B613B7D082299
:1081500062F303033B757B7D43F001037B753B6A50
:1081600003F00F03DAB2BB7D62F30303BB75BB7D83
:108170006FF30413BB75FB7D6FF30003FB75284A97
:108180007B69C2F8143500233B61BB6ADBB23B74E8
:108190007B6ADBB27B74BB7C042262F30203BB7498
:1081A000FB7C43F00103FB743B6803F00103DAB28C
:1081B000FB7C62F34103FB74194A3B69C2F8183532
:1081C000174B6422C3F84425154A7B68C2F834353E
:1081D000134BAA22C3F83C25114B40F20712C3F8F7
:1081E00038250F4B0022C3F810210D4B0022C3F895
:1081F0000C210B4B4FF0FF32C3F80823084B082229
:10820000C3F804230A4B00221A6000210120FFF763
:10821000E7FE0120FFF7B0FE00BF1837BD4680BD66
:10822000001000401122334455667788A70DE60EF2
:10823000B401002080B588B004AFF860B9607A60FE
:10824000084B1B6802930023019300230093012332
:108250007A68B968F868FFF729FF00BF1037BD4694
:1082600080BD00BF4000002080B500AF0E4BD3F8AA
:108270005035032B0BD00C4BD3F85035012B06D0C7
:10828000094BD3F85035022B01D0FFF7D3FE064B34
:108290001122C3F80022044B01225A60034B05222D
:1082A0001A7000BF80BD00BF00100040A801002070
:1082B00080B582B000AF254B1B68002B02D000F0C8
:1082C000D1FA786000BF214B1B68002B06D000F06C
:1082D000C9FA02467B68D31A022BF4D91C4BD3F897
:1082E0005035092B06D01A4BD3F850350A2B01D044
:1082F000FFF7A0FE174B00221A60154B0322C3F8AC
:108300000022134B01221A60134B04221A7000BF83
:108310000F4BD3F85035002BFAD00D4BD3F8503516
:108320000C2BF5D00A4BD3F85035042BF0D0084B6A
:10833000D3F80032064A43F01803C2F80032034B68
:1083400001221A6000BF0837BD4680BDC001002071
:1083500000100040AC010020A801002080B500AF53
:10836000054B1B68054A1360054B064AC3F80425F4
:10837000FFF77AFF00BF80BDA0010020A40100200C
:10838000001000408012002080B584B000AF7860FB
:1083900039600023FB600BE0FB687A6813441978AE
:1083A000144AFB6813440A461A70FB680133FB60E9
:1083B000FA683B689A42EFDB0F4B1B68002B02D038
:1083C00000F050FAB86000BF0B4B1B68002B06D0C2
:1083D00000F048FA0246BB68D31A022BF4D9074BC7
:1083E000044AC3F80425FFF763FF00BF1037BD46FA
:1083F00080BD00BF80110020C0010020001000409F
:1084000080B400AF064B1A68064B1B689A4214BF33
:1084100001230023DBB21846BD465DF8047B70479C
:10842000A4010020A001002080B485B000AF7860D6
:108430000023FB600AE0FB687A6813440C49FA6881
:108440000A4412781A70FB680133FB60084B5B78B2
:108450001A46FB689342EEDB064B1B68064A136024
:10846000034B5B7818461437BD465DF8047B7047B4
:1084700080120020A0010020A401002080B400AFE1
:10848000194B0022C3F80021174B0022C3F8042126
:10849000154B0022C3F80821134B0022C3F80C210E
:1084A000114B0022C3F810210F4B0022C3F81421F6
:1084B0000D4B0022C3F818210B4B0022C3F81C21DE
:1084C000094B0022C3F82821074B0022C3F83021B2
:1084D000054B0022C3F83421044B00221A6000BF70
:1084E000BD465DF8047B704700100040C0010020CD
:1084F00080B584B000AF774B1B68002B03D0754B61
:108500001B689847E3E00023FB730023BB73002341
:108510007B73714BD3F80431002B05D00123FB731F
:108520006D4B0022C3F804216B4BD3F80C31002BA8
:1085300000F0B1800123FB73684B00221A60664B88
:108540000022C3F80C21664B1B78DBB2022B02D150
:108550000123BB739FE0624B1B78DBB2012B07D179
:10856000604B1B6801335F4A136001237B7392E009
:108570005B4B1B78DBB2042B18D1574B5A4AC3F81C
:10858000042500BF544BD3F85035022B04D0524B76
:10859000D3F85035032BF5D14F4B1122C3F80022ED
:1085A0004F4B05221A700123BB7374E04C4B1B78B0
:1085B000DBB2052B6FD14B4B1B680133494A13606B
:1085C0004A4B1B78002B5ED0434BD3F80034002B72
:1085D00018D0474B01221A600023BB600BE0454ACC
:1085E000BB6813441978444ABB6813440A461A709E
:1085F000BB680133BB60414B1B780133BA689A42B8
:10860000EDDD18E03A4B4FF0FF321A6000237B603B
:108610000BE03B4A7B6813441978374A7B68134464
:108620000A461A707B6801337B60344B1B78013338
:108630007A689A42EDDD314B1B78002B1CD0284B19
:1086400004221A70244B2C4AC3F80425224B03221F
:10865000C3F80022204B01221A6000BF1E4BD3F842
:108660005035002BFAD01C4BD3F800321A4A43F095
:108670001803C2F800320EE0194B05221A70164B8F
:1086800001229A6007E001237B73154B05221A70C3
:10869000114B01229A60FB7B002B04D10F4B00226F
:1086A0001A60FFF7EBFEBB7B002B06D0154B1B6857
:1086B000002B02D0134B1B6898477B7B002B06D006
:1086C000114B1B68002B02D00F4B1B6898471037CB
:1086D000BD4680BDB401002000100040C001002054
:1086E000A8010020A001002080120020B10100207C
:1086F000AC0100206011002080110020B00100209A
:1087000040110020BC010020B801002080B400AF5F
:10871000034B1B681846BD465DF8047B704700BFDD
:10872000C001002080B483B000AF0346FB71FB7929
:1087300003F01F02074997F907305B09012000FA8F
:1087400002F241F8232000BF0C37BD465DF8047BE0
:10875000704700BF00E100E080B483B000AF034683
:108760003960FB7197F90730002B0BDA3B68DAB2FE
:108770000C49FB7903F00F03043B5201D2B20B44C6
:108780001A7609E03B68DAB2074997F907305201D7
:10879000D2B20B4483F8002300BF0C37BD465DF80E
:1087A000047B704700ED00E000E100E080B500AF21
:1087B0001B4BFA22C3F84025194B0022C3F80425AD
:1087C000174B0122C3F80825154B0422C3F81025C6
:1087D000134B4FF48032C3F80423114B0122C3F82A
:1087E00000220A20FFF79EFF02210A20FFF7B4FFB4
:1087F0000C4B00221A600C4B00221A600B4B00221B
:108800001A600B4B00221A600A4B00221A60044BBC
:1088100001221A60084B01221A7000BF80BD00BF00
:1088200000A00040C4010020C8010020CC010020AD
:10883000D0010020D4010020D801002080B400AF76
:10884000064B01229A64054BD3F84825044B1B685C
:1088500013441846BD465DF8047B704700A00040F5
:10886000C401002080B400AF034B1B681846BD460E
:108870005DF8047B704700BFC801002080B582B05E
:1088800000AF2A4BD3F84031002B39D0274B0022C0
:10889000C3F84021264B1B68002B07D0234A254BE9
:1088A0001B68C2F84035224B00221A60224B1B681D
:1088B0009847224B1B68002B33D0204B1B68012BA1
:1088C00012D11C4B1B681E4A126813447B607B68E4
:1088D000312B01D832237B60144A7B68C2F84035C3
:1088E000164B02221A600BE0144B1B68022B07D1B7
:1088F0000E4A104B1B68C2F84035104B00221A601C
:108900000A4BD3F84431002B0CD0084B0022C3F89B
:1089100044210C4B1B68002B04D00B4B1B68984761
:1089200000E000BF0837BD4680BD00BF00A0014089
:10893000E4010020E8010020DC010020F00100201B
:10894000EC010020F4010020E001002080B400AF21
:10895000194B0022C3F84021184B1B68FA33174A01
:108960001360174B1B680133154A1360144B1B68C7
:10897000144A1268934219D3134B1B680133124AED
:1089800013600F4B00221A60104B1B6801330F4A13
:1089900013600E4B1B68B3F57A7F07D30C4B1B6833
:1089A00001330B4A1360094B00221A6000BFBD4619
:1089B0005DF8047B704700BF00A00040C4010020A8
:1089C000D001002044000020C8010020D401002074
:1089D000CC01002080B485B000AF78600B4B1B78D1
:1089E000DBB2002B0CD00A4B1A687B681344FB6087
:1089F00000BF074B1A68FB689A42FAD100BF00E03B
:108A000000BF1437BD465DF8047B7047D8010020D5
:108A1000C801002080B584B000AFF860B9607A600A
:108A20003B600322B968F868FFF704FC0B4A7B68D7
:108A300013600B4A3B681360FFF790FC094B002260
:108A4000C3F80022074B0122C3F80425054B01227D
:108A50001A6000BF1037BD4680BD00BF480000202F
:108A6000F801002000D0004080B483B000AF7860EF
:108A7000044A7B68136000BF0C37BD465DF8047B79
:108A8000704700BF4C00002080B485B000AF786014
:108A900039601B4B1B68002B15D00023FB600AE0DC
:108AA000FB687A681A44FB6810331178154AD15470
:108AB000FB680133FB60FA683B689A42F0DB124ABC
:108AC0003B68136015E00023BB600BE0BB687A686D
:108AD000134419780B4ABB6813440A461A70BB68E2
:108AE0000133BB60BA683B689A42EFDB064A3B68D9
:108AF000136000BF1437BD465DF8047B704700BFAC
:108B0000F801002084170020FC01002090B585B0FA
:108B100000AF7860174B1B683F2B25DC0023FB6000
:108B200009E0154AFB6852F823307A689A421DD052
:108B3000FB680133FB600F4B1B68FA689A42F0DB5D
:108B40000C4B1B680C497A6841F82320094B1C68C0
:108B5000FFF788FE0246094B43F82420054B1B68AB
:108B60000133044A136002E000BF00E000BF143785
:108B7000BD4690BD0C020020841500208416002004
:108B800080B584B000AFFFF76DFE78600023FB6016
:108B90002FE01C4AFB6852F823307A68D31A1A4A2D
:108BA0001268934222D9FB680133BB6014E0BB68B2
:108BB000013B1649BA6851F82220144941F8232094
:108BC000BB68013B0F49BA6851F822200D4941F8B2
:108BD0002320BB680133BB600D4B1B68BA689A4207
:108BE000E5DB0B4B1B68013B094A1360FB68013353
:108BF000FB60074B1B68FA689A42CADB00BF10375C
:108C0000BD4680BD84160020500000208415002041
:108C10000C02002090B587B000AFFFF7F1FB0346D0
:108C2000002B65D09248FFF7FFFB0346FB60914B9A
:108C3000D3F800347B61FB68052B01DC00237B61EA
:108C40007B69002B54D08A4B9B781B06BB60884BFA
:108C5000DB781B041A46BB681343BB60844B1B794B
:108C60001B021A46BB681343BB60814B5B791A46F3
:108C7000BB681343BB60804B1B68002B06D1BB68ED
:108C8000002B35D0B868FFF741FF31E07A4B1B6805
:108C9000013B7A4A52F82330BA689A4228D1764B7F
:108CA0001B685C1EFFF7DEFD0246754B43F824206F
:108CB000744B01221A60744AFB68136000233B6105
:108CC0000BE06B4A3B6913441978704A3B691344C3
:108CD0000A461A703B6901333B613A69FB689A4264
:108CE000EFDB654B1B68013B614A1178684AD15440
:108CF000FFF7A4FD7860674B1B687A68D31A664A51
:108D00001268934205D2634B1B687A689A4200F25C
:108D1000AA80604A7B681360574B1B680133564A30
:108D20001360554B1A685D4B1B689A4202DD524B2B
:108D300000221A60504B1B68002B40D1FFF720FF28
:108D4000574B00221A70564B10225A70554B1B6815
:108D5000002B08DD524B5A78524B1B68DBB2134490
:108D6000DAB24F4B5A704E4B00229A704C4B002295
:108D7000DA704B4B00221A71494B00225A71484B52
:108D800001229A71454B1B68DAB2454BDA71424BAE
:108D90001B681B0EDAB2424B1A723F4B1B681B1446
:108DA000DAB23F4B5A723C4B1B681B12DAB23C4B97
:108DB0009A72394B1B68DAB2394BDA723FE02E4BAC
:108DC0001B68DBB20A33DAB2354B1A70344B10220F
:108DD0005A70344B1B68002B08DD314B5A78314BED
:108DE0001B68DBB21344DAB22D4B5A70224B1B685E
:108DF000013B224A52F823303B603B681B0EDAB23B
:108E0000274B9A703B681B0CDAB2254BDA703B6833
:108E10001B0ADAB2224B1A713B68DAB2204B5A7144
:108E20001F4B01229A711D4B1B68DAB21C4BDA7181
:108E3000114B1B68013B164AD25C194B1A7200BFDA
:108E4000FFF764FC0346002BFAD1154B5B781946FB
:108E50001348FFF799FA084B1B68002B04D1114BFC
:108E600000221A6000E000BF1C37BD4690BD00BF65
:108E70008413002000100040080200208415002008
:108E80008416002004020020000200208414002028
:108E90008418002010020020480000200C0200204E
:108EA00084170020FC01002080B588B000AFFFF7D8
:108EB000D9FC3861FFF7A4FA0346002B00F0D180FB
:108EC0006948FFF7B1FA0346FB60684BD3F80034FA
:108ED000002B00F0C180FB68052B40F3BF80624B84
:108EE0009B781B06BB60604BDB781B041A46BB6893
:108EF0001343BB605C4B1B791B021A46BB681343D0
:108F0000BB60594B5B791A46BB681343BB60564B39
:108F10001B7AFB710123FB61554B1B68BA689A42AF
:108F200001D00023FB61BB68002B41D1514B1B6872
:108F30003A69D21A504B1B689A4239D94F4A3B6959
:108F400013604F4BD3F808353B604D4B0022C3F8FC
:108F500000213A684B4BA3FB02135B09642101FB20
:108F600003F3D31A612B23D9474B01221A70464BC6
:108F700010225A703E4B1B681B0EDAB2424B9A709D
:108F80003B4B1B681B0CDAB23F4BDA70384B1B684B
:108F90001B0ADAB23C4B1A71354B1B68DAB23A4BFA
:108FA0005A71394B01229A7110213748FFF7ECF9B9
:108FB000FB69002B1CD1BB68002B51D1334B012224
:108FC0001A60334AFB6813600023BB610BE0264A3A
:108FD000BB69134419782C4ABB6913440A461A70BA
:108FE000BB690133BB61BA69FB689A42EFDB37E0CA
:108FF000264B01221A60264AFB68136000237B611E
:109000000BE0194A7B69134419781F4A7B691344A2
:109010000A461A707B6901337B617A69FB689A4260
:10902000EFDB144A3B691360144A3B691360194B28
:109030001B68002B15DD184B1B78FA799A4210D06B
:10904000FFF764FB0346002B0BD1124B1B6819463C
:109050001148FFF799F904E000BF02E000BF00E00B
:1090600000BF2037BD4680BD8413002000100040A3
:109070004C000020180200205400002014020020A0
:1090800000D000401F85EB51841400200402002012
:1090900000020020FC0100208417002080B500AFF2
:1090A000054B1B68002B02D0FFF7B4FD01E0FFF772
:1090B000FBFE00BF80BD00BFF80100200649074A43
:1090C000074B9B1A03DD043BC858D050FBDC00F073
:1090D00035F8FBF7B5F8000038A1000000000020CB
:1090E000C4000020FEE7FEE7FEE7FEE7FEE7FEE73E
:1090F000FEE7FEE7FEE7FEE780B400AFBFF34F8F69
:10910000054BDB6803F4E0620349044B1343CB6077
:10911000BFF34F8F00BFFDE700ED00E00400FA054C
:1091200080B400AF034B044A1A6000BFBD465DF82F
:10913000047B7047580000200090D00380B500AF3A
:1091400000F05AF90346002B06D09A4B1B681B0A05
:10915000994A03F01F03136000F080F90346002BC7
:1091600002D0964B964A1A6000F09AF90346002BFB
:1091700006D0944B1B685B0B934A03F00703136004
:1091800000F0C0F90346002B05D0904BDB688F4AF6
:1091900023F08073D36000F0D7F90346002B0ED084
:1091A0004FF080430022C3F80C214FF0804300228F
:1091B000C3F810214FF080430022C3F8382500F097
:1091C000F5F90346002B02D0814B03221A6000F010
:1091D0000FFA0346002B0BD07E4B05221A607E4B04
:1091E00001221A607D4B00221A607D4B3F221A60DB
:1091F00000F020FA0346002B76D04FF08053794AD6
:10920000D3F80434C2F820354FF08053754AD3F8B0
:109210000834C2F824354FF08053724AD3F80C3426
:10922000C2F828354FF080536E4AD3F81034C2F894
:109230002C354FF080536B4AD3F81434C2F83035D4
:109240004FF08053674AD3F81834C2F834354FF0E2
:109250008053644AD3F81C34C2F840354FF0805331
:10926000604AD3F82034C2F844354FF080535D4A49
:10927000D3F82434C2F848354FF08053594AD3F814
:109280002834C2F84C354FF08053564AD3F82C346A
:10929000C2F850354FF08053524AD3F83034C2F8F8
:1092A00054354FF080534F4AD3F83434C2F8603508
:1092B0004FF080534B4AD3F83834C2F864354FF03E
:1092C0008053484AD3F83C34C2F868354FF0805395
:1092D000444AD3F84034C2F86C354FF08053414AC9
:1092E000D3F84434C2F8703500F0C6F90346002BB9
:1092F00005D03D4B1B683D4A03F04F03136000F05F
:10930000EDF90346002B0DD04FF08043D3F8003425
:1093100003F00103002B05D04FF080436FF00102F2
:10932000C3F80024324BD3F88830314A43F4700339
:10933000C2F88830BFF34F8FBFF36F8F4FF0102309
:10934000D3F80032002B05DB4FF01023D3F80432A2
:10935000002B2BDA274B0122C3F8042500BF254B35
:10936000D3F80034002BFAD04FF010231522C3F8A5
:10937000002200BF1F4BD3F80034002BFAD04FF06F
:1093800010231522C3F8042200BF1A4BD3F800346F
:10939000002BFAD0174B0022C3F8042500BF154B51
:1093A000D3F80034002BFAD0FFF7A6FEFFF7B8FE83
:1093B00000BF80BD240300104035014074C0074049
:1093C0000DF0ADBA440200103C050040F0ED00E0A5
:1093D000A005004010560040885600401856004036
:1093E0001456004000C0004058020010E40E004037
:1093F00000ED00E000E0014080B400AF144B1B68BA
:10940000DBB2062B1DD1134B1B6803F00F03002B9F
:1094100017D1114B1B6803F0F003302B01D101234E
:1094200010E00D4B1B6803F0F003402B01D101232A
:1094300008E0094B1B6803F0F003502B01D1012316
:1094400000E000231846BD465DF8047B704700BF6E
:10945000E00F00F0E40F00F0E80F00F080B400AF80
:109460000C4B1B68DBB2062B0DD10B4B1B6803F0BA
:109470000F03002B07D1094B1B6803F0F003302BBF
:1094800001D1012300E000231846BD465DF8047BAE
:10949000704700BFE00F00F0E40F00F0E80F00F0AD
:1094A00080B400AF144B1B68DBB2062B1DD1134BED
:1094B0001B6803F00F03002B17D1114B1B6803F03F
:1094C000F003302B01D1012310E00D4B1B6803F09A
:1094D000F003402B01D1012308E0094B1B6803F086
:1094E000F003502B01D1012300E000231846BD46B4
:1094F0005DF8047B704700BFE00F00F0E40F00F060
:10950000E80F00F080B400AF0C4B1B68DBB2062BF9
:109510000DD10B4B1B6803F00F03002B07D1094B38
:109520001B6803F0F003302B01D1012300E000237E
:109530001846BD465DF8047B704700BFE00F00F0A1
:10954000E40F00F0E80F00F080B400AF144B1B688C
:10955000DBB2062B1DD1134B1B6803F00F03002B4E
:1095600017D1114B1B6803F0F003302B01D10123FD
:1095700010E00D4B1B6803F0F003402B01D10123D9
:1095800008E0094B1B6803F0F003502B01D10123C5
:1095900000E000231846BD465DF8047B704700BF1D
:1095A000E00F00F0E40F00F0E80F00F080B400AF2F
:1095B0000C4B1B68DBB2062B0DD10B4B1B6803F069
:1095C0000F03002B07D1094B1B6803F0F003302B6E
:1095D00001D1012300E000231846BD465DF8047B5D
:1095E000704700BFE00F00F0E40F00F0E80F00F05C
:1095F00080B400AF0C4B1B68DBB2062B0DD10B4BBC
:109600001B6803F00F03002B07D1094B1B6803F005
:10961000F003302B01D1012300E000231846BD46A2
:109620005DF8047B704700BFE00F00F0E40F00F02E
:10963000E80F00F080B400AF0C4B1B68DBB2062BC8
:109640000DD10B4B1B6803F00F03002B07D1094B07
:109650001B6803F0F003502B01D1012300E000232D
:109660001846BD465DF8047B704700BFE00F00F070
:10967000E40F00F0E80F00F080B400AF144B1B685B
:10968000DBB2062B1DD1134B1B6803F00F03002B1D
:1096900017D1114B1B6803F0F003302B01D10123CC
:1096A00010E00D4B1B6803F0F003402B01D10123A8
:1096B00008E0094B1B6803F0F003502B01D1012394
:1096C00000E000231846BD465DF8047B704700BFEC
:1096D000E00F00F0E40F00F0E80F00F080B400AFFE
:1096E000144B1B68DBB2062B1DD1134B1B6803F018
:1096F0000F03002B17D1114B1B6803F0F003302B25
:1097000001D1012310E00D4B1B6803F0F003402B47
:1097100001D1012308E0094B1B6803F0F003502B33
:1097200001D1012300E000231846BD465DF8047B0B
:10973000704700BFE00F00F0E40F00F0E80F00F00A
:1097400008B5074B044613B10021AFF30080054B69
:109750001868836A03B19847204600F031F800BFCB
:109760000000000028A1000070B50D4D0D4C641BD9
:10977000A4100026A64209D10B4D0C4C00F0C8FCE9
:10978000641BA4100026A64205D170BD55F8043B09
:1097900098470136EEE755F8043B98470136F2E763
:1097A000BC000020BC000020BC000020C000002045
:1097B00002440346934200D1704703F8011BF9E7C6
:1097C000FEE700BF81F0004102E000BF83F00043EC
:1097D00030B54FEA41044FEA430594EA050F08BF4C
:1097E00090EA020F1FBF54EA000C55EA020C7FEA10
:1097F000645C7FEA655C00F0E2804FEA5454D4EB8D
:109800005555B8BF6D420CDD2C4480EA020281EA56
:10981000030382EA000083EA010180EA020281EA8E
:109820000303362D88BF30BD11F0004F4FEA0131E0
:109830004FF4801C4CEA113102D0404261EB4101EF
:1098400013F0004F4FEA03334CEA133302D0524275
:1098500063EB430394EA050F00F0A780A4F1010431
:10986000D5F1200E0DDB02FA0EFC22FA05F280186B
:1098700041F1000103FA0EF2801843FA05F3594151
:109880000EE0A5F120050EF1200E012A03FA0EFCD0
:1098900028BF4CF0020C43FA05F3C01851EBE371FA
:1098A00001F0004507D54FF0000EDCF1000C7EEB17
:1098B00000006EEB0101B1F5801F1BD3B1F5001F55
:1098C0000CD349085FEA30004FEA3C0C04F1010474
:1098D0004FEA445212F5800F80F09A80BCF1004F9D
:1098E00008BF5FEA500C50F1000041EB045141EA1F
:1098F000050130BD5FEA4C0C404141EB010111F420
:10990000801FA4F10104E9D191F0000F04BF0146CA
:109910000020B1FA81F308BF2033A3F10B03B3F1A8
:1099200020020CDA0C3208DD02F1140CC2F10C0238
:1099300001FA0CF021FA02F10CE002F11402D8BF96
:10994000C2F1200C01FA02F120FA0CFCDCBF41EA62
:109950000C019040E41AA2BF01EB0451294330BD31
:109960006FEA04041F3C1CDA0C340EDC04F114040E
:10997000C4F1200220FA04F001FA02F340EA0300E5
:1099800021FA04F345EA030130BDC4F10C04C4F12B
:10999000200220FA02F001FA04F340EA030029460B
:1099A00030BD21FA04F0294630BD94F0000F83F455
:1099B000801306BF81F480110134013D4EE77FEA38
:1099C000645C18BF7FEA655C29D094EA050F08BF84
:1099D00090EA020F05D054EA000C04BF1946104665
:1099E00030BD91EA030F1EBF0021002030BD5FEAA9
:1099F000545C05D14000494128BF41F0004130BDD1
:109A000014F580043CBF01F5801130BD01F0004524
:109A100045F0FE4141F470014FF0000030BD7FEA97
:109A2000645C1ABF194610467FEA655C1CBF0B4692
:109A3000024650EA013406BF52EA033591EA030FA9
:109A400041F4002130BD00BF90F0000F04BF0021A1
:109A5000704730B54FF4806404F132044FF00005D4
:109A60004FF0000150E700BF90F0000F04BF00214D
:109A7000704730B54FF4806404F1320410F00045B3
:109A800048BF40424FF000013EE700BF42004FEAAE
:109A9000E2014FEA31014FEA02701FBF12F07F432B
:109AA00093F07F4F81F06051704732F07F4208BFE2
:109AB000704793F07F4F04BF41F40021704730B5E9
:109AC0004FF4607401F0004521F000411CE700BF35
:109AD00050EA010208BF704730B54FF000050AE0B8
